:020000040800F2
:1000000028060020850100083D200008B71D0008D3
:1000100000000000000000000000000000000000E0
:10002000000000000000000000000000C1240008E3
:1000300000000000000000003123000895010008C6
:1000400097010008000000009701000897010008D0
:100050009701000897010008970100089701000820
:100060009701000897010008970100089701000810
:10007000791300089701000897010008970100080C
:1000800000000000912600080000000000000000B1
:1000900000000000211A00089701000897010008DD
:1000A000000000009701000800000000992B0008E4
:1000B0000000000000000000000000000000000040
:1000C00000F002F800F04FF80CA030C808382418EF
:1000D0002D18A246671EAB4654465D46AC4201D180
:1000E00000F041F87E460F3E0FCCB6460126334263
:1000F00000D0FB1AA246AB4633431847103200002B
:1001000030320000103A02D378C878C1FAD85207CA
:1001100001D330C830C101D504680C6070470000BD
:100120000023002400250026103A01D378C1FBD813
:10013000520700D330C100D50B60704710B5752948
:1001400002D100F087F810BD002010BD1FB501F0EE
:10015000C3F804000020002103F06EF8401C60602A
:100160001FBD10B510BD01F083F81146FFF7EEFF7B
:1001700002F0CEFF01F0A4F803B4FFF7F2FF03BCD6
:1001800001F0AEF80748804707480047FEE7FEE762
:10019000FEE7FEE7FEE7FEE704480549054A064B91
:1001A000704700004D260008C1000008280200200A
:1001B0002806002028040020280400200FB41CB5C5
:1001C000084B06AA7B4469460090059800F011FE92
:1001D00004460020694600F01FFE20461CBC08BCF7
:1001E00004B01847510C0000F8B50E460446002034
:1001F00020622046E1688847002829D0252802D0BF
:100200006268A16820E0E168204600278847050071
:100210001ED028464138192802D80127FF02203570
:100220003246204627602946FFF788FF002808D07D
:10023000012804D0F61DF608F6000836D9E7361D69
:10024000D7E762682846A1689047206A401CCFE73C
:10025000206AF8BDF7B5002575291068009914A625
:1002600011D0C046C046002802DA404211A608E07C
:10027000009909688A0701D50FA602E0490704D54D
:100280000EA6012501E0C046C046009F0024243789
:1002900004E000F00FFE30313955641C0028F8D11D
:1002A0002B4632462146009800F046FDFEBD000078
:1002B000000000002D0000002B00000020000000C6
:1002C0000FB400B58DB010A909900B900020C04369
:1002D00000910A9000200C90074878440690074847
:1002E00078446A4607900F9909A800F0AFFD0DB059
:1002F00008BC04B018470000930B0000AD0B0000D1
:10030000FFB51D460027FF4383B05C6800200190C5
:100310009E68A96904987F1C88470090296A8847CD
:100320000028F6D10098401C0CD0032040028443E2
:10033000002E19DD600614D500982B2809D02D2831
:100340000FD103E00020C04307B0F0BD01208002C0
:100350000443A96904987F1C8847761E002E0090EC
:1003600002DD0098302803D00598002825D035E01C
:100370000120A96940020443761E04987F1C884727
:10038000002E009003DD782805D0582803D005986A
:10039000002810D022E00598002801D010281DD197
:1003A0000120A96940028443761E04987F1C884777
:1003B0000090102002E0082000E00A2005900DE0E7
:1003C0000121059A49020C430199761E51430818F0
:1003D0000190A96904987F1C88470090002E05DDD4
:1003E0000599009800F01DFD0028E9DAE9690498F4
:1003F0008847A00502D40120C043A5E7E00722D129
:10040000600611D56005019800D5404229680A1D93
:100410002A600968220501D5087014E0220701D579
:10042000088010E008600EE02868011D296000685F
:10043000210502D50199017005E02107019901D537
:10044000018000E0016038467EE730B505460B4686
:100450002A461C781078521C5B1C002801D0A04250
:10046000F7D0002C03D0002802D06D1CEFE72846FF
:1004700030BD002203098B422CD3030A8B4211D3D7
:1004800000239C464EE003460B433CD40022430825
:100490008B4231D303098B421CD3030A8B4201D315
:1004A00094463FE0C3098B4201D3CB01C01A5241AD
:1004B00083098B4201D38B01C01A524143098B42FD
:1004C00001D34B01C01A524103098B4201D30B01E6
:1004D000C01A5241C3088B4201D3CB00C01A52410B
:1004E00083088B4201D38B00C01A524143088B42D0
:1004F00001D34B00C01A5241411A00D20146524169
:10050000104670475DE0CA0F00D04942031000D387
:100510004042534000229C4603098B422DD3030ADC
:100520008B4212D3FC22890112BA030A8B420CD3EC
:10053000890192118B4208D3890192118B4204D315
:1005400089013AD0921100E08909C3098B4201D395
:10055000CB01C01A524183098B4201D38B01C01ACF
:10056000524143098B4201D34B01C01A5241030946
:100570008B4201D30B01C01A5241C3088B4201D3F5
:10058000CB00C01A524183088B4201D38B00C01AA2
:100590005241D9D243088B4201D34B00C01A524179
:1005A000411A00D20146634652415B10104601D306
:1005B0004042002B00D54942704763465B1000D390
:1005C000404201B50020C046C04602BD704770479A
:1005D000704700000246C80FC00781434B0030B58A
:1005E0004B405B009B0D20D01923DB06C91801236B
:1005F0001B05994220DB0324A40704251346AB40C6
:100600000BD3002B04D1EB0613409B00E34204D430
:1006100001246407002312195941FF231B05994245
:100620000BD2C9000143500F09E0CB0204D50143AE
:100630000803024305D0054830BDFF21C905084322
:1006400030BD084607210905884330BD0000C07F42
:10065000F0B5F94D0C091E092C402E402F468BB0E9
:10066000A7437DD0B543FCD0002E7AD0002CFCD01F
:100670000D465D40ED0F2543AC1BFF25AD0464190D
:100680000894C502440DC9022143500DDC02044305
:100690000120C00701430443D2020191200C110C38
:1006A00000958C46010423468B430A916146090458
:1006B000E24D8A430991010A7D444919803909783C
:1006C00005464D4301266D18F605751B6943C90C97
:1006D000640B891C4C436418B5012C1B250C2E049B
:1006E000B4434C434D43210C691889090591009D81
:1006F000E90701D00121C90704912C460199670837
:10070000CD072F434C08059DE10B4D432D0C294689
:100710006646754302950D4645432E46029D7D1B58
:10072000B44100950D465D4301942C0C2F040D46F9
:100730005543AE462D0C3D43029503947546049CEB
:100740002D04641B049406D2029C039D641C0026A5
:1007500075410395029401AC70CC009F7D1B01E0B4
:100760003EE162E1B44109040095079101940599C5
:10077000A4086143090C0C464443650BE7040C468E
:1007800066467443A646640B3C4303950294744644
:10079000049DE4042C1B049406D2029C039D641C5B
:1007A000002675410395029401AC70CC009F7D1B1F
:1007B000B44101940C465C430095650FE7000C467C
:1007C0005443A646640F3C43039502947446049D2B
:1007D000E4002C1B049406D2029C039D641C00269A
:1007E00075410395029401AC70CC009F7D1BB44110
:1007F000AE09AF06049DC900AD092F43049DA406B0
:10080000AD060495079D344369180791059DE10BDA
:100810004D432D0C29466646754302950D464543CA
:100820002E46029D7D1BB44100950D465D4301940B
:100830002C0C2F040D465543AE462D0C3D4302951E
:1008400003947546049C2D04641B049406D2029CF8
:10085000039D641C002675410395029401AC70CC85
:10086000009F7D1BB44101948C050694079C890A66
:10087000611800950791019C0599A4086143090C32
:100880000D464543680BEF040D46644665436C0B0B
:100890003C43049FED047D1BAC4602D20025641C42
:1008A0006841009E019D371B8541084658430195CC
:1008B0000C46460FC5005443600F28436546E400CC
:1008C0002C1B02D20025401C6E41019D3F1AB541F0
:1008D0002846BD09800628438446A009BF064E026B
:1008E0000699A40676180743079D002068410A99D7
:1008F000079019430020099B00906046FF1913439D
:100900004041E20F64003A43A4460446D71A8C41A2
:10091000A04203D90120009020463A46C70F941800
:1009200040416246D20F2243644664000494009C16
:10093000BE466400D71AA446044602978C41774607
:10094000002F01D1A04204D96046401C8446029A7F
:100950002046C40FA64694184041049A0546D20F7B
:10096000224364466400D31A8D417146002901D1A7
:10097000A84202D928461A46641C104301220028C6
:1009800000D0164361020020079B891904465C4190
:100990000223002C02DB491813466441089DCE0A4D
:1009A0002D145D194B056705E10A2C050D190899F1
:1009B0003E43C9076940002B08D0934006D300226C
:1009C000761C5141002B01D1760876001C4A002D7F
:1009D00043DB154241D0AA433FD030460BB0F0BDB7
:1009E00006180D464D41174C7642AC411AD3951866
:1009F0001C465C41134A6D42A24113D301225205A9
:100A00004C00D4420AD15C00D4420BD04B4002D5FA
:100A100092021143E2E749004908DFE75940C90F54
:100A2000C90718E000200849D8E7054801420DD160
:100A30000342F7D0F2E700000000FF07D02B0000D0
:100A40000000F07F0000E0FF0000F87F11485940EF
:100A50000143C01241400020C0E70123089A9B06D1
:100A60009A4205DC032252078918C90FC907B5E766
:100A7000052252078918074A1143D2125140ADE7A7
:100A800070B515461C4602460B4628462146FFF720
:100A9000DFFD70BDFFFFFF7F1F22030C02D10F227D
:100AA000000402D0030E03D004E00020014670478A
:100AB0000002083A030F01D10001121F830F01D178
:100AC0008000921E002801DB4000521E12055118C2
:100AD0004205C012411810467047C10FC90700D027
:100AE0004042012292071143D6E701218907D3E74B
:100AF000F0B58B4C0F09254689B0BD437BD01D094D
:100B00002646AE43FAD00E465E402740F60F3E43DF
:100B1000254071D024012142FBD0FF24AD19A4044B
:100B20002D1B039501252D05DB02DB0AC9022B4392
:100B3000C90A29431E010901040F130F05012143AE
:100B40001701880B820391432D098C46A90B1E4384
:100B50008A039543B30B9A0396433F09BA0B940358
:100B6000A74302962E467E430497B6464E19D719E0
:100B70000C460196544305977E43371B7646BF1BB0
:100B80003601B646BE0B361900967646BC043719B8
:100B9000009C01D3641C00946400002F01D0012646
:100BA0003443029E049F754366467E430496760056
:100BB00034196E0034190094029C019E1C1966437E
:100BC000751BAE46069465464519059C05956C4314
:100BD000594375460891691A0191049E0146514393
:100BE000A41B0491611A009C0791E10605D06109DC
:100BF0000122114302E072E06EE06109089D0027C6
:100C00002C0A2D066918049D7C412A0A2D066918B4
:100C1000019D6241AC0DAD026D185441079A910DD2
:100C2000920255196141029A644658435443069B07
:100C3000059A5A43121A131B9A0E9B015B187A41AC
:100C4000010B0005C3185141220A200644195A41DC
:100C50009A4200D2491C01204002814203D315234D
:100C60000226F64302E014230326F6432020C51A89
:100C7000A9401746AF40DA400A4320460399D840BE
:100C80000914731819055118039A3843D2075140B3
:100C9000AC4009D00122944006D30022401C5141AF
:100CA000002C01D1400840001E4A934212D3012279
:100CB00003989206904207DB0520400709181A485E
:100CC0000143C012414004E0032040070818C10F4F
:100CD000C907002009B0F0BD0020F107FAE70518A8
:100CE0000C464C4111486D42A04115D394181A4648
:100CF0005A410E48644290410ED301204A004005FB
:100D0000824209D35A00824206D35940C90F084A89
:100D1000C90700201143DDE700200649DAE700009B
:100D20000000FF07FE070000FFFFFF7F0000E0FF5D
:100D30000000F07F0000F87FFFB504460D4681B04B
:100D4000243000902168880604D51022E069914380
:100D5000216000E00120A84201DD471B00E00027E0
:100D60000498A1697A191018081AA0612078C006A1
:100D700002D42046C046C046002608E003986268B8
:100D8000A168805D9047206A401C761C2062049810
:100D90008642F3DB2078C0060AD52046C046C0460E
:100DA00006E06268A16830209047206A401C2062FB
:100DB00038467F1E0028F4DC07E000986268A168CE
:100DC000405D9047206A401C206228466D1E002826
:100DD000F3DC2046C046C0462078000602D502203B
:100DE00005B0F0BD0120FBE701694A1C02610878EB
:100DF000704700B58FB0029100210591054901931C
:100E000079440391114604906846FFF7EDF90FB05D
:100E100000BD0000E5FFFFFF0A681070521C0A6069
:100E200070473A2800D23038202302469A43412A9C
:100E300001D310463738884201D30020C0437047A1
:100E400002685118137801601846704710B5D160D8
:100E500005497944516105497944116200211161C4
:100E6000114600F045F810BDEBFFFFFF81000000C8
:100E70004268002A08D001680B78491C002B03D077
:100E8000521E06C0184670470121C160881E704777
:100E90004268002A0BD0C3680168002B07D1836821
:100EA0008B4204D0491E521C06C00020704700200F
:100EB000C043704701468008081A02091018020A48
:100EC0001018020C1018C008820012185200891A5B
:100ED00001E0401C0A390A29FBD2704710B50446CC
:100EE00000F0E6F90068005DC007C00F10BD00000B
:100EF000F3B50C468FB000200C90012000260E9018
:100F000008460C3003906269039801219047051E42
:100F10002ED0252D2DD0216A8847002818D062694F
:100F2000039801219047216A88470028F7D1626918
:100F3000411E0398904700E0761CA1690F988847EE
:100F4000216A88470028F7D1E1690F988847DAE7D6
:100F5000A1690F988847A842074601D1761CD2E7BD
:100F6000E1690F9888477F1C02D10C98002877D040
:100F70006BE16269039800273D46394690472A286D
:100F80000CD16269039801219047012506E00A21EE
:100F90004F433F18303FEBD410200543626903985C
:100FA00001219047014630390A2903D2AC498F42CA
:100FB000DEDCECE7E90600D4AA4F6C280AD04C2806
:100FC00010D0682824D06A282ED074280CD07A2813
:100FD0000AD00DE062690398012190476C2823D064
:100FE00004211CE0202005436269039801219047F9
:100FF000A760652865604FD026DC582839D01ADCF8
:10100000452849D012DC252834D04128B0D143E00E
:101010006269039801219047682802D008210D4396
:10102000E6E70120C002DEE70220DCE7462833D0F5
:1010300047289DD130E05B2870D061282CD06328F0
:101040006CD0642894D161E06F284FD009DC662809
:1010500022D0672820D0692826D06E2817D12EE00C
:10106000EFE070284DD073286FD075284ED07828C7
:101070000DD154E0A1690F9888472528054600D175
:101080006CE7E1690F9888476D1C00D16DE7DCE0E3
:101090000A224CE00A2252E0012023466A460F99B8
:1010A000C043C046C046C5E0402128462346084309
:1010B0006060A80701D5002239E000223FE0E80780
:1010C00000D020E72068011D21600068290501D5B6
:1010D000067018E7290701D5068014E7A90703D58C
:1010E000F117066041600EE706600CE740212846D4
:1010F000234608436060A80701D5082217E00822AC
:101100001DE0594928460840606016E04021284605
:10111000234608436060A807BCD5B9E715E0402125
:10112000284608436060A80707D5234610220120FF
:101130000F99C043C046C0467CE0102223460120E0
:101140000F99C043FFF7DCF874E0002163280B46D9
:101150000191009102910D9102D05B2807D03BE0F4
:10116000E80601D40120A0600120009034E0E0688E
:1011700001210D906269039890475E2807D10120F4
:101180000190E06801210D90626903989047216900
:10119000002906D10B4604AA8F00491C0829D35107
:1011A000FADB002851D02169002926D00298401C82
:1011B000029062690398012190475D28F1D101985E
:1011C000002808D0002004AB8100401C5A58D243AC
:1011D00008285A50F8DB04AB2069002820791CD07D
:1011E0004007029A00980D9B0092224602901F48E9
:1011F0000F991DD5C046C0461CE0C117C90E09187D
:101200004A114909930004AA9A184901411A13681E
:101210000120884003431360CBE740072246134870
:101220000F9902D5C046C04604E0C046C04601E062
:10123000C046C04600280ADA401C06D10E98002895
:1012400003D00020C04311B0F0BD0C98FBE7E907C4
:1012500002D10C99491C0C91361800200E9052E6D0
:10126000CCCCCC0CFFFFFF7FF1F7FFFFFEFFFFFFB1
:10127000754600F02DF8AE46050069465346C00895
:10128000C000854618B020B5FEF786FF60BC002779
:101290004908B6460026C0C5C0C5C0C5C0C5C0C542
:1012A000C0C5C0C5C0C5403D49008D46704700005F
:1012B00010B500F011F8001D10BD00BF7D1F00002B
:1012C00010B50446C046C0462046FEF755FF10BD87
:1012D00000487047C801002000487047E80100201E
:1012E00001491820ABBEFEE726000200024670B599
:1012F0000A4392072AD11E4DEE0104C808C9541BA7
:101300009443344017D0D0B2D9B2401A21060143D9
:1013100010D190B299B2401A210401430AD11002AF
:101320001902000A090A401A2102014302D1100ED3
:10133000190E401A70BD9A42DFD010BA19BA88420D
:1013400001D9012070BD0020C04370BD02780B7828
:10135000401C491C002A09D09A4207D102780B7818
:10136000401C491C002A01D09A42EFD0D01A70BD0F
:101370000101010170470000FEB50421224800F080
:1013800057F801283FD12148006801281CD11E4888
:1013900000F04AF81E49088008460088FFF7A5FBC0
:1013A00006461C4A1C4BFFF7A3FB044600221B4BBE
:1013B000FFF74EF901910090FFF70CF9184908600A
:1013C0000220124908601EE00F4800F02DF8104975
:1013D000088008460088FFF788FB04460D4A0E4B3C
:1013E000FFF786FB064600220C4BFFF731F901910F
:1013F0000090FFF7EFF80B490860012003490860EF
:10140000014800F026F8FEBD0024014078000020CD
:101410006C0000206666666666660A4000FEAF40A5
:1014200070000020740000200146086C80B27047F4
:1014300010B502460020002354680C40234614686F
:101440000C40002C03D0002B01D0012000E0002034
:1014500010BD8168042211438160704710B590B0BF
:10146000074808A1C2686846FEF7A8FE0446002C9B
:1014700003DD2146684601F083FB10B010BD00007B
:10148000A00100207B2272616E2D7777223A7B22A9
:1014900076616C223A25757D7D0D0A0010B592B0FB
:1014A0000A48406A0949096A009101900748C369DE
:1014B00007A1826902A8FEF781FE0446002C03DD25
:1014C000214602A801F05CFB12B010BDA001002073
:1014D0007B22636F6C2D6C6564223A5B25752C252D
:1014E000752C25752C25755D7D0D0A0010B517210D
:1014F00001A001F045FB10BD7B227374617465226D
:101500003A22636F6E6E6563746564227D0D0A0016
:1015100010B52D2101A001F033FB10BD7B226274B8
:101520006E2D616263223A7B22737769223A226FC1
:101530006666222C22746578223A22E5B7B2E585E8
:10154000B3E781AF227D7D0D0A00000010B52C218C
:1015500001A001F015FB10BD7B2262746E2D61624B
:1015600063223A7B22737769223A226F6E222C2201
:10157000746578223A22E5B7B2E5BC80E781AF22F4
:101580007D7D0D0A0000000010B545484068012827
:101590007FD143488068002819D14148C068FF289E
:1015A00003D100203E49C8600AE03D48C0681930B8
:1015B0003B49C8600846C068FF2801D9FF20C860C1
:1015C0003749C86800F06EFEFFF748FF61E0344815
:1015D000806801285DD1FF203149486231480068A8
:1015E000012818D108468069FF2802D100208861AF
:1015F0000AE02B48806919302949886108468069CA
:10160000FF2801D9FF208861254C636A226AE169BD
:10161000A06900F057FE23480068022819D120482D
:10162000C069FF2803D100201D49C8610AE01C4899
:10163000C06919301A49C8610846C069FF2801D934
:10164000FF20C861164C636A226AE169A06900F054
:1016500039FE14480068032819D11148006AFF2890
:1016600003D100200E4908620AE00D48006A1930D3
:101670000B4908620846006AFF2801D9FF2008626A
:10168000074C636A226AE169A06900F01BFEFFF75C
:1016900005FF04480068042801D100F0C7FC10BD14
:1016A000A00100206800002010B500201849086043
:1016B000C860886001221749174801F084FC0021A6
:1016C0001B2000F0F5FC1B2001218140134A116012
:1016D00000BF00201249486088604861401E0860D1
:1016E0000C31002000F06AF90D48C068FF2802D9CB
:1016F00055200B49C8600A48C068002802D0012064
:10170000074948600649C86800F0CCFD10BD0000DC
:1017100090000020050105000038014000E100E0D4
:10172000A001002030B587B001F094F900287DD0E9
:101730005FA16348FEF789FE002817D0FFF7D6FEA9
:10174000604800686049086008464068002802D187
:10175000FFF7DEFE0AE0FFF7F9FE5B48806800282D
:1017600002D1FFF77BFE01E0FFF798FE57A1544836
:10177000FEF76BFE00281CD0012053494860FFF79C
:10178000E5FE51488068002808D100F0F7FC4E497A
:10179000C86800F087FDFFF761FE0AE000F0E2FC98
:1017A000494D6B6A2A6AE969A86900F08BFDFFF769
:1017B00075FE4AA14248FEF748FE002806D00020E8
:1017C00041494860FFF7A4FE00F0AEFC47A13C4849
:1017D000FEF73BFE0446002C1ED00020069006AA11
:1017E00045A12046FEF76CFD012815D13649069823
:1017F000C8600120486133480068086100208860A3
:1018000001204860FFF7A2FE00F0B8FC2E49C8682E
:1018100000F048FDFFF722FE3AA12948FEF715FE29
:101820000446002C2BD00020059000E029E0049015
:101830000390029002A803A904AB05AA00910190AD
:1018400033A12046FEF73CFD042818D11E49059817
:1018500088610498C8610398086202984862012070
:1018600088604860FFF772FE00F07CFC164D6B6AE2
:101870002A6AE969A86900F025FDFFF70FFE01F06B
:101880000BF911484069012810D10F4800690D4932
:101890000968081A7D214901884207D300200A49B6
:1018A00048610846017B002000F096F807B030BD83
:1018B00022676574223A2273746174652200000005
:1018C000A000002084000020A00100202262746E8D
:1018D0002D616263223A226F6E2200002262746ED2
:1018E0002D616263223A226F666622002272616E67
:1018F0002D7777223A0000002272616E2D777722D1
:101900003A25750022636F6C2D6C6564223A5B008A
:1019100022636F6C2D6C6564223A5B25752C2575EE
:101920002C25752C25755D0030B5044604250B204B
:10193000000400F0A9F90546042D19D10D48006BEB
:10194000022108430B4908630A4840384461006992
:10195000402108430749403908610B20000400F08A
:1019600093F905460348006B022188430149086347
:10197000284630BD4020024070B504460D4604267E
:101980000B20000400F080F90646042E11D10A480D
:10199000006B042108430849086325700B200004EC
:1019A00000F072F906460448006B0421884302499E
:1019B0000863304670BD0000402002400246FF2010
:1019C000C130824201D300207047032080061018E6
:1019D000007808700120F7E770B504460D46FF2037
:1019E000C130844201D3002070BD72B600F03AF9D4
:1019F000032080062018FFF797FF29460320800662
:101A00002018FFF7B9FF00F023F962B60320800623
:101A100020180078A84201D00020E5E70120E3E784
:101A200070B572B6402000F04FF8002838D0002181
:101A30001C4800F0E3FF01211A4800F06DFE01216F
:101A4000184800F071FE0024002514E000BF0121B9
:101A5000144800F084FE0028F9D00121114800F05C
:101A60005BFE64084021104800F097F9002801D07F
:101A7000802004436D1C082DE8D30021094800F0A4
:101A800053FE402000F01AF808490C700120084964
:101A90000870064800780749086001200649086078
:101AA00062B670BD002C014000080048880000208C
:101AB000890000200000002020000020014948612A
:101AC000704700000004014001460020044A5269AA
:101AD0000A40002A01D0012000E0002070470000E9
:101AE00000040140002120498279002A35D00A46AD
:101AF000126803689A430B461A600A4652680368E4
:101B00009A430B465A60027951180A6803681A43CF
:101B10000A60154A926803689A43134B9A601A4602
:101B2000D26803689A43104BDA604279102A0CD1CC
:101B30001A46926803681A430B4B9A601A46D26899
:101B400003681A43084BDA600DE0074942795118DF
:101B50000A6803681A430A6005E0027951180A68A6
:101B600003689A430A6070470004014010B5274893
:101B700001F0B6FA2649087026480068002804D00B
:101B8000012812D002283ED126E021480078AA2858
:101B90000AD11F48007820491E4A126888541D48FF
:101BA0000068401C1B4908602DE019480078442853
:101BB0000ED1174801781848164A12688154154802
:101BC0000068401C1349086001201449086002E0C5
:101BD00000201049086016E00D48007864280EDCEB
:101BE0000B4801780C480B4A126881540948006878
:101BF000401C0849086001200949086002E00020F3
:101C00000449086000BF00BF10BD0000003801405B
:101C10000C000020140000201800002020000020EC
:101C20001000002004200949C968C907C90F00290C
:101C300001D0012008E00549C9681022114000299F
:101C400001D0022000E00420704700000020024084
:101C5000034800698021084301490861704700007A
:101C6000002002400548006980210840002804D077
:101C7000034802494860034848607047002002401A
:101C800023016745AB89EFCD10B503460424FFF768
:101C9000C9FF044603E0FFF7C5FF04465B1E012CA5
:101CA00001D1002BF7D1002B00D10524204610BD17
:101CB000F0B500220023002400BF3DE0012595403F
:101CC0002B460D681D402C469C4234D10D79012DC8
:101CD00002D00D79022D16D1856857000326BE402B
:101CE000B54385604D795600B540866835438560BB
:101CF000456801269640B543456045688E79964013
:101D0000B6B235434560056857000326BE40B5436B
:101D100005600D795600B540066835430560C56815
:101D200057000326BE40B543C560CD795600B54087
:101D3000C6683543C560521C102ABFD30D7A002DEA
:101D400004D1056B0E683543056303E0056B0E682F
:101D5000B5430563F0BDF0B5002300244D07EE0E3A
:101D60001546B5402B46CD10AE0005462035AD5981
:101D70004E07F70E0F26BE40B543CE10B6000746FD
:101D80002037BD51CD10AE003D46AD591D432C4608
:101D9000CD10AD003E467451F0BD024600201369DF
:101DA0000B40002B01D0012000E000207047816231
:101DB00070478161704700BFFEE70EB501214804FE
:101DC00000F0B8FA06200090002168460171012158
:101DD0004171002181710121C1710172694609209F
:101DE000C006FFF765FF0EBD10B53F48006801282B
:101DF00054D100203D4908602C213DA000F0C0FED8
:101E0000012047494860C9687D22D20051430846F5
:101E1000FF21FEF72EFB044621460120800700F03B
:101E2000E5FD3F48406A002802D164203C494862F1
:101E30003B49096A7D22D2005143394A526A5143D3
:101E400008463849FEF715FB044621460120800765
:101E500000F0D2FD324989697D22D2005143304AD7
:101E6000526A514308462F49FEF703FB04462146B8
:101E70000120800700F0BEFD2949C9697D22D200FA
:101E80005143274A526A514308462649FEF7F1FA60
:101E9000044621460120800700F0AAFD1248006890
:101EA00002281DD10020114908602D211EA000F03C
:101EB00067FE00210120800700F09EFD0021012027
:101EC000800700F097FD00210120800700F090FDC1
:101ED00000210120800700F089FD002010494860A2
:101EE00000200149086010BD2400002028000020C7
:101EF0007B2262746E2D616263223A7B2273776962
:101F0000223A226F6E222C22746578223A22E5B79B
:101F1000B2E5BC80E781AF227D7D0D0A00000000A4
:101F2000A001002001FE00007B2262746E2D616220
:101F300063223A7B22737769223A226F6666222CEB
:101F400022746578223A22E5B7B2E585B3E781AF1E
:101F5000227D7D0D0A0000000EB50121C80400F0AD
:101F6000E9F9882000900121684601714171002142
:101F70008171C171017269460348FFF799FE88219A
:101F80000148FFF714FF0EBD0008004870B5044675
:101F90000D461F480068012806D0022810D00328EB
:101FA0001BD0042832D124E029462046FFF7FFFE4B
:101FB000184800681849086002201549086025E0A3
:101FC0001448006814490968401AFF21F531884215
:101FD00002D303200E49086018E029462046FFF787
:101FE000E8FE0C4800680C490860042008490860B5
:101FF0000CE00848006808490968401AFF21F531DB
:10200000884202D301200249086000BF00BF70BDB2
:1020100004000020840000200800002010B50421E6
:10202000014800F0ADFD10BD3C00002010B50421BA
:10203000014800F0A5FD10BD3800002070470000E9
:1020400000218278002A27D0184A03231B02D218C5
:1020500003789B109B00D15802789207D30EFF2281
:102060009A400B469343194642789207120E037822
:102070009B07DB0E9A4011430C4A03231B02D21824
:1020800003789B109B00D1500278D306DB0E01220F
:102090009A40064B1A6007E00278D306DB0E012255
:1020A0009A40024B80331A607047000000E100E064
:1020B00010B5002819DA1A4A03071B0F083B9B08C2
:1020C0009B00D2588307DC0EFF23A3409A434B07A3
:1020D0001B0E8407E40EA3401A43114B0407240F80
:1020E000083CA408A4001A5118E00E4A03231B025E
:1020F000D21883089B00D2588307DC0EFF23A3402D
:102100009A434B071B0E8407E40EA3401A43054B6A
:10211000032424021B198408A4001A5110BD0000D6
:102120001CED00E000E100E010B500200C49086261
:102130008861C861C86000210120800700F056FC5A
:1021400000210120800700F053FC002101208007BE
:1021500000F050FC00210120800700F04DFC10BD74
:10216000A001002010B500200349C8600021012013
:10217000800700F03BFC10BDA001002010B500203E
:10218000094908628861C86100210120800700F0C8
:102190002FFC00210120800700F02CFC00210120F1
:1021A000800700F029FC10BDA001002000B58BB015
:1021B0000121080500F0BEF80121084600F0CAF828
:1021C0001E200890022108A80171012141710021FF
:1021D0008171C171017208A92E48FFF769FD0422BF
:1021E00001212C48FFF7B7FD042202212948FFF7FF
:1021F000B2FD042203212748FFF7ADFD042211465A
:102200002448FFF7A8FD2448069024492448006884
:10221000FEF72FF9401E81B2684681820021C182FB
:102220008183817705A90120800700F0E9FB602107
:1022300068460180012141800021818100200290B7
:1022400068468180C1810182418269460120800700
:1022500000F0B0FA0020029069460120800700F0EB
:10226000E5FA0020029069460120800700F032FB69
:102270000020029069460120800700F07BFB0121CD
:10228000880700F051FA0121880700F05BFA0BB0D3
:1022900000BD0000000C0048E70300008096980095
:1022A0008000002070B504467D21C90061430846C6
:1022B000FF21FEF7DEF8054629460120800700F0E1
:1022C00095FB70BDF8B505460E4617461C463946C7
:1022D0007D22D2005143614308461449FEF7C9F8F4
:1022E000014600900120800700F086FB29467D22F0
:1022F000D2005143614308460C49FEF7BAF8014643
:1023000000900120800700F075FB31467D22D2004D
:102310005143614308460549FEF7ABF8014600907A
:102320000120800700F064FBF8BD000001FE000002
:1023300070470000002905D0054A52690243044B4A
:102340005A6104E0024A52698243014B5A61704764
:1023500000100240002905D0054AD2690243044B0F
:10236000DA6104E0024AD2698243014BDA617047C4
:1023700000100240002905D0054A92690243044B2F
:102380009A6104E0024A92698243014B9A61704764
:102390000010024070B50446002500264148406800
:1023A0000C2108400546002D04D0042D05D00C2D2D
:1023B00009D105E03C48206008E03B48206005E08A
:1023C0003A48206000BF3848206000BF00BF354851
:1023D0004068F021084005462D09680034490E5A2E
:1023E00031462068FEF745F860602E4840680721B6
:1023F0000902084005462D0A2E48465D6068F040F7
:10240000A0602D480069800F800700280DD1254865
:10241000C030806A1F21890608400546AD0EA91C00
:102420002648FEF726F8E06016E023480069800F92
:10243000800701218907884203D0A0684008E06036
:102440000AE01D480069800F80070121C907884202
:1024500002D0A0688008E0601248006B102108409C
:10246000102802D01048206101E0206820610D484A
:10247000006B8007800F002802D1A068606110E027
:102480000848006B8007800F012802D12068606136
:1024900007E00448006B8007800F032801D1024841
:1024A000606170BD001002400048E80150BD0100AD
:1024B0006432000884320008002401400090D003F8
:1024C0007047000030B500228B071C0F0F23A3407C
:1024D0001A460B4B8C10A4001B599343084C8D10CB
:1024E000AD00635123468C10A4001B598C07250FA7
:1024F0000446AC402343024C8D10AD00635130BD07
:1025000008000140F8B500250026002700200090B3
:1025100000240E48056A280C0090ACB200982040B8
:1025200000280FD10A4807680A480740E006000E55
:102530006105890E090208430646054800683043D4
:102540000349086000F008F8F8BD000000F8FF1F1C
:10255000001002400700FFFF85B0002004900390A8
:1025600002900190009033480068012108433149EE
:1025700008603048C030806A0F21C90288432D4965
:10258000C03188620846806A0721C9020843294988
:10259000C031886200BF27480068022108400390CC
:1025A0000498401C04900398002803D12249049801
:1025B0008842F0D11F48006802210840002802D05C
:1025C0000120039001E000200390039801282FD1FF
:1025D0001A48006802900298C008C00002900221C8
:1025E0000298084315490860124840680190F0219C
:1025F0000198884301900F49019848600846406857
:10260000009007210902009888430090094900982A
:102610004860084640688008800048600846406876
:10262000486000BF034840680C2108400028F9D1E9
:1026300005B0704700100240FFFF0000002002407C
:10264000002001490861704700E000E010B50D4826
:102650000068012108430B490860084640680A49A0
:102660000840084948600846006B13218843054923
:10267000086300208860FFF745FF00200349486396
:1026800010BD0000001002401CB8FFF840200240BE
:1026900010B50121074800F06CF8002808D0064862
:1026A0000068401C044908600121024800F038F825
:1026B00010BD000000100040840000201FB5012163
:1026C0001020FFF747FE124802901F2168468180C4
:1026D000012181810021C18001A90E4800F090F9FB
:1026E0001121684601700021417001218170FFF7BE
:1026F000A7FC0121074800F00FF801221146054808
:1027000000F04AF80121034800F00EF81FBD000058
:10271000E703000000100040CA4392B20261704714
:10272000CA4392B202617047002904D002680123B3
:102730001A43026003E00268014B1A4002607047CE
:10274000FEFF0000002905D0426C0123DB031A4381
:10275000426403E0426C5204520C426470470246E9
:10276000002013690B40002B01D0012000E0002065
:10277000704730B5024600200023002415690D4043
:102780002B46D5680D402C46002B03D0002C01D0E1
:10279000012000E0002030BD10B5002A03D0C3683E
:1027A0000B43C36004E0C368CC43A4B22340C360BE
:1027B00010BD000070B5002400220023056A184EE9
:1027C00035400562056AAAB24568ABB28569ACB20C
:1027D000134D6F3D2C40B51E2C400D882C43751EAB
:1027E0002A408D892A434D882A430E4DA84210D194
:1027F000F51F2A40CD892A43F51E2A408D882A4399
:10280000074DFF3D2B40084D2B400D8A2B434D8A31
:102810002B43436084618D684563026270BD000094
:10282000FEFF0000002C0140FFFD000070B50024F9
:1028300000220023056A214E35400562056AAAB2CE
:102840004568ABB28569ACB21D4D2C401D4D2C4086
:102850000D782D062D0C2C43184D103D2A408D89E6
:102860002D052D0C2A434D882D052D0C2A43164D80
:10287000A8421CD1154D2B400D8AAD042D0C2B43C5
:102880000546A84213D10D4D703D2A40CD892D0536
:102890002D0C2A43094D303D2A408D882D052D0CE5
:1028A0002A430B4D2B404D8AAD042D0C2B43436026
:1028B00084618D688563026270BD0000EFFF0000D7
:1028C000FF8F0000FFFC0000002C0140FFFB000018
:1028D000FFF7000070B5002400220023056A1E4E99
:1028E00035400562056AAAB24568ABB2C569ACB2AB
:1028F000194D90352C40184DFD352C400D882C433A
:10290000164D2A400D7B2D062D0C2A438D782D0661
:102910002D0C2A43124DA84217D1124D2A408D7B0F
:102920002D062D0C2A43104D2A400D792D062D0C15
:102930002A430E4D2B400E4D2B400D8A2D052D0C9C
:102940002B434D8A2D052D0C2B434360C4618D68AC
:10295000C563026270BD0000FFFE0000FFFD0000C5
:10296000002C0140FFF70000FFFB0000FFEF00001C
:10297000FFDF000070B5002200230024056A154E19
:1029800035400562056AABB24568ACB2C569AAB20A
:10299000114D2A40114D2A400D782D062D0C2A4349
:1029A0000F4D2B400D7B2D072D0C2B438D782D07C4
:1029B0002D0C2B430B4DA84205D10B4D2C400D8AFD
:1029C000AD052D0C2C434460C2618D680564036223
:1029D00070BD0000FFEF0000FF8F0000FFFC000053
:1029E000FFDF0000002C0140FFBF00004163704783
:1029F00081637047C16370470164704741627047EB
:102A0000002203689AB20F4B984203D001239B0720
:102A1000984203D10C4B1A404B881A430B4B9842F7
:102A200003D00B4B1A400B891A4302604B68C362F8
:102A30000B888362034B984201D18B7A0363012395
:102A400043617047002C01408FFF000000100040E0
:102A5000FFFC000010B50E480068032808D10C48A0
:102A6000C068092801D3012010BD00F015F80CE062
:102A700007480068002808D00548406805490968EB
:102A8000081A052801D300F007F80020ECE7000041
:102A9000900000208400002010B50022074908485B
:102AA00000F091FA002007490860C86088600122A0
:102AB0000249034800F087FA10BD00000501050037
:102AC000003801409000002000B589B00121880342
:102AD000FFF750FC01214804FFF72CFC012188047A
:102AE000FFF728FC082006900221684601770121A3
:102AF000417700218177C17708A8017006A90920D4
:102B0000C006FFF7D5F81020069006A91248FFF777
:102B1000CFF8012203210920C006FFF71CF901228A
:102B200004210D48FFF717F94B20C0010090002049
:102B300001900390029005900C200490694607488C
:102B400000F062FA0121054800F000FA2021034854
:102B500000F0FAF909B000BD000400480038014057
:102B600010B5044600BF8021044800F0FBF900289E
:102B7000F9D02146014800F0B8FA10BD00380140F4
:102B800070B504460D4604E02078FFF7E9FF641CA9
:102B90006D1E002DF8D170BD10B53749374800F0D3
:102BA000EBF9012866D1FEF7E1FF344800F098FA0E
:102BB0003349087033480068002804D0012816D033
:102BC000022856D147E02E4800787B280ED12D48A8
:102BD0000068401C2B490860012088602848007864
:102BE00008740120C86028480068486041E0254812
:102BF000C068FE280DD2224801782248C2681030F1
:102C000081541038C068401C1E49C8601E480068C6
:102C100048601B4800787B2805D11A488068401C12
:102C20001849886016E0164800787D2812D11548AA
:102C30008068401E1349886008468068002809D1D2
:102C400000211048C2681030815410380068401CC0
:102C50000C4908600DE00A4800780A2803D10320D7
:102C60000849086004E0002006490860C8608860E0
:102C700000BF00BF10BD0000050105000038014085
:102C80000C000020900000208400002010B59F4818
:102C90000068012874D19E480068030000F029FAFA
:102CA0001B0F161D27333E495663717E84919EABE0
:102CB000B8C5D2DFF4F2F1F0EFEEEDEC15006420D0
:102CC0009449C86001209449086013E100209149AB
:102CD000C8600120904908600CE164208D49C860FB
:102CE0008861C861086201208B49086002E1002008
:102CF0008849C8608861C861086288490860022004
:102D000085490860F6E06420824988610120824993
:102D10000860824908607F498860EBE000207D49B7
:102D2000886101207C4908607C4908607949886095
:102D3000E0E06420774908620120774908600320B9
:102D400076490860012073498860D3E0002071490A
:102D50000862012070490860032070490860012062
:102D60006C498860C6E064206A49C86101206A49EC
:102D70000860022069490860012066498860B9E05E
:102D8000BBE000206349C86101206349086002205C
:102D90006249086001205F498860ABE000205D491E
:102DA0008860FEF7F1FBA5E05A48C068052804D307
:102DB0005848C068401F5749C860012056490860FC
:102DC00098E054488069FA2804D852488069401D28
:102DD000504988610120504908608BE04D48806966
:102DE000052804D34B488069401F4A498861012067
:102DF000494908607EE04748006AFA2804D84548F7
:102E0000006A401D4349086201204349086071E09F
:102E10004048006A052804D33E48006A401F3D49E7
:102E2000086201203C49086064E03A48C069FA2819
:102E300004D83848C069401D3649C8610120364968
:102E4000086057E03348C069052804D33148C06999
:102E5000401F3049C86101202F4908604AE02D48D1
:102E6000406AFA2804D82B48406A401D2949486224
:102E70000120294908603DE039E035E02FE029E0F4
:102E800023E019E00DE0FFE72248406A052804D35B
:102E90002048406A401F1F49486201201E490860BF
:102EA00028E001201E49086006211E48FFF768FE41
:102EB0001E201D4908601DE004211C48FFF760FE2C
:102EC00005211B48FFF75CFE14E004211948FFF7B9
:102ED00057FE0FE004211848FFF752FE0AE00421D4
:102EE0001648FFF74DFE05E0FFF7A0F802E0FFF7F8
:102EF00095F800BF00BFFEF777FF0020104908607B
:102F0000104908600149086010BD00002000002041
:102F100000000020A0010020240000206800002004
:102F200028000020600000202C0000204500002028
:102F30004000002049000020340000203000002024
:102F4000140000201000002001627047002904D006
:102F5000026801231A43026003E00268520852002B
:102F60000260704702460020D3690B40002B01D05D
:102F7000012000E00020704770B502460B46002497
:102F80000021002500201E04350ED9B201268E40F6
:102F90003146012D02D11668314006E0022D02D1E2
:102FA0005668314001E0966831401C0C0126A6406D
:102FB0003446D6693440002903D0002C01D00120CA
:102FC00000E0002070BDF8B50346002400260096FE
:102FD0000025002018460E04340ECEB200960127BC
:102FE000009EB7403D46022C01D1001D02E0032C9B
:102FF00000D10830002A03D006682E43066002E0A4
:103000000668AE430660F8BDF0B587B004460D46CD
:10301000002700200690002620684008400020601D
:10302000666803210903304688430646A8680643BC
:103030006660266827480640E96868680843296989
:10304000084306432660A6680321090230468843E8
:10305000064668690643A6606846FFF79BF91E4866
:10306000844202D10598069001E0029806902068FB
:103070000121C903084000280CD02968069A500095
:10308000FDF7F7F907462968069A5000FDF7F1F9B0
:103090000E4609E029680698FDF7EBF9074629680E
:1030A0000698FDF7E6F90E4628684008B04200D8B9
:1030B0007F1C20680121C9030840002806D038077A
:1030C000460F38460549084030430746B8B2E0602D
:1030D00007B0F0BDF3E9FFFF00380140F0FF00004A
:1030E0000146486AC005C00D7047CA05D20D82620C
:1030F000704730B47446641E2578641CAB4204D318
:10310000635D5B00E31830BC18471D46F8E700001C
:10311000FFF796FAFFF7D2FAFEF71EFFFFF746F821
:10312000FEF74BFEFFF7D0FCFEF7BEFA4B20400245
:1031300000F00CF807E0FEF7F5FAFFF7A7FD08210D
:103140000148FEF723FFF6E70008004810B58AB0F3
:10315000044600203249087032490870214632483E
:103160000068FDF786F9401E304908600121C80457
:10317000FFF7E0F820212E48FEF71BFE20200790E5
:10318000012108A8017041700021817007A9284819
:10319000FEF78EFD0121C804FFF7CCF84020079010
:1031A000002108A8017001214170C170017107A9B7
:1031B0001F48FEF77DFD0121C802FFF7DBF81B4821
:1031C000006802900021684681808181C18001A948
:1031D0001848FFF715FC002168460176402005904D
:1031E0000C21684641760121817605A8FEF77AFC1C
:1031F00001210846FFF7BEF806210220FFF762F919
:103200004020FEF75BFC15216846017400214174E3
:103210000121817404A8FEF713FF0AB010BD00005D
:103220008900002088000020800000208C00002001
:1032300000080048002C014010B500290AD0087889
:10324000002807D005487844FEF750F8002801D040
:10325000002010BD0248784410BD0000E6000000C8
:10326000DE00000001000600010001000100010075
:10327000010001000200040008001000400080006E
:1032800000010002000000000102030480807F7E34
:103290007D7C7B7A797877767675747372717170CC
:1032A0006F6E6E6D6C6C6B6A6A696868676666657E
:1032B0006464636362616160605F5F5E5E5D5D5C0C
:1032C0005C5B5B5A5A59595858575756565555557D
:1032D0005454535352525251515050504F4F4F4EDD
:1032E0004E4D4D4D4C4C4C4B4B4B4A4A4A4949492B
:1032F000484848474747474646464545454444446D
:103300004443434343424242424141413C3400082A
:10331000000000209000000004010008CC340008E8
:103320009000002098050000200100081001000016
:1033300043000000F8FFFFFF004040404040404095
:103340004040414141414140404040404040404078
:10335000404040404040404040050202020202021C
:10336000020202020202020202202020202020206B
:10337000202020020202020202029090909090907F
:10338000101010101010101010101010101010103D
:1033900010101010020202020202888888888888B1
:1033A000080808080808080808080808080808089D
:1033B00008080808020202024000000000000000A5
:1033C00000000000000000000000000000000000FD
:1033D00000000000000000000000000000000000ED
:1033E00000000000000000000000000000000000DD
:1033F00000000000000000000000000000000000CD
:1034000000000000000000000000000000000000BC
:1034100000000000000000000000000000000000AC
:10342000000000000000000000000000000000009C
:10343000000000000000000000000000000000008C
:10344000010000000000000000000000000000007B
:10345000000000000000000000000000000000006C
:10346000000000000000000000000000AA0600B0FC
:10347000AA0500AFAA1400BEAA1500BFAA13011422
:10348000D2AA0200ACAA0300ADAA0400AEAA080B9F
:10349000002F30303030312A3F3F3FC4AA070200AE
:1034A00001B4000000000000000000000000000067
:1034B0000000000001000000000000000048E801DA
:0C34C00000000000000000000000000000
:04000005080000C12E
:00000001FF
